:020000040800F2
:1000000000300020750A0008BD0A0008BD0A00087B
:10001000BD0A0008BD0A0008BD0A00080000000073
:10002000000000000000000000000000BD0A000801
:10003000BD0A000800000000BD0A0008BD0A000853
:1000400000000000000000000000000000000000B0
:1000500000000000000000000000000000000000A0
:100060000000000000000000000000000000000090
:100070000000000000000000000000000000000080
:100080000000000000000000000000000000000070
:100090000000000000000000000000000000000060
:1000A0000000000000000000000000000000000050
:1000B0000000000000000000000000000000000040
:1000C0000000000000000000000000000000000030
:1000D0000000000000000000000000000000000020
:1000E0000000000000000000000000000000000010
:1000F0000000000000000000000000000000000000
:1001000000000000000000000000000000000000EF
:1001100000000000000000000000000000000000DF
:1001200000000000000000000000000000000000CF
:1001300000000000000000000000000000000000BF
:1001400000000000000000000000000000000000AF
:10015000000000000000000000000000000000009F
:10016000000000000000000000000000000000008F
:10017000000000000000000000000000000000007F
:08018000000000000000000077
:1001880010B5054C237833B9044B13B10448AFF3C9
:1001980000800123237010BD280400200000000007
:1001A800000C0008084B10B51BB108480849AFF30C
:1001B80000800848036803B910BD074B002BFBD02B
:1001C800BDE81040184700BF00000000000C000800
:1001D8002C040020280400200000000082B0002326
:1001E800009301930193019B83420BD20023009358
:1001F800009A054B9A4202D8009B0133F7E7019B0E
:100208000133EFE702B07047CF01010030B5002499
:1002180085B00125EAB21E48102100F001FC002338
:1002280085F0010503930193019BB3F5967F0ED2E8
:1002380000230293029BB3F5967F05D2039B0133FB
:100248000393029B0133F4E7019B0133EBE7019B26
:10025800B3F5967F07D1029BB3F5967F03D1039A36
:100268000C4B9A420DD008210122094800F0D8FB16
:100278000320FFF7B3FF06480821002200F0D0FB57
:1002880000240134B4F5FA6FC4D305B030BD00BF03
:1002980000040048905F010013B500220E48302189
:1002A80000F0BEFB00230193019C94B92021012298
:1002B800094800F0B5FB0120FFF790FF0648202110
:1002C800224600F0ADFB0120FFF788FF019B0133B8
:1002D800E9E702B010BD00BF0004004800B50B22DA
:1002E8008BB04FF480338DE80C00684600230493EC
:1002F8000893069300F052F80BB05DF804FB000079
:10030800074B07B5DA6942F08052DA61DB6903F01E
:1003180080530193019B00F089FB03B05DF804FB57
:10032800001002407FB50C4B0C485A6942F48022F9
:100338005A615B6903F480230093009B382301937F
:10034800012302930023039301A90323049300F0DC
:10035800A1FA07B05DF804FB001002400004004851
:1003680008B500F07BFBBDE8084000F067BB08B5A6
:10037800FFF7B4FFFFF7C4FFFFF7D4FFFFF78CFFC9
:10038800FFF744FFFFF7ECFFFEE70000024B186899
:10039800421C1A60704700BF440400200368F7B588
:1003A800DA07054603D42B689B0774D4F4E0B04CF5
:1003B800636803F00C03042B07D0636803F00C0395
:1003C800082B17D16368DF0314D54FF4003393FA71
:1003D800A3F2216893FAA3F30122B3FA83F303F09B
:1003E8001F0302FA03F30B42DDD06B68002BDAD14E
:1003F800012048E26B68B3F5803F07D022684BB113
:10040800B3F5A02F06D142F480222260226842F47C
:10041800803205E022F480322260226822F48022B1
:100428002260E26A22F00F01AA680A43E262CBB1B5
:10043800FFF7ACFF06464FF4003393FAA3F22168A6
:1004480093FAA3F30122B3FA83F303F01F0302FA2A
:1004580003F30B42A7D1FFF799FF801B6428EAD961
:10046800032010E2FFF792FF06464FF4003393FA99
:10047800A3F2216893FAA3F30122B3FA83F303F0FA
:100488001F0302FA03F30B428DD0FFF77FFF801B97
:100498006428EAD9E4E7764C636813F00C0F07D0B8
:1004A800636803F00C03082B21D16368DE031ED4B4
:1004B800022393FAA3F2216893FAA3F30122B3FA71
:1004C80083F303F01F0302FA03F30B4202D02B69F4
:1004D80093428DD12268F82191FAA1F16B69B1FAA2
:1004E80081F122F0F8028B401343236054E02A691B
:1004F80001237AB393FAA3F2B2FA82F202F1845298
:1005080002F5841292001360FFF740FF06460223AB
:1005180093FAA3F25648216893FAA3F30122B3FA97
:1005280083F303F01F0302FA03F30B4205D1FFF72D
:100538002DFF801B0228EAD992E70268F82191FA78
:10054800A1F16B69B1FA81F122F0F8028B401343F3
:10055800036021E093FAA3F3B3FA83F303F184531E
:1005680003F584139B001A60FFF710FF0646022369
:1005780093FAA3F2216893FAA3F30122B3FA83F35F
:1005880003F01F0302FA03F30B4205D0FFF7FEFE48
:10059800801B0228EBD963E72B681C0703D42B6860
:1005A80058074CD4EAE0A969314C012319B393FAEE
:1005B800A3F1B1FA81F12F4A0A4492001360FFF7C0
:1005C800E5FE0646022393FAA3F293FAA3F293FAFE
:1005D800A3F2616A93FAA3F30122B3FA83F303F057
:1005E8001F0302FA03F30B42D9D1FFF7CFFE801B9A
:1005F8000228E7D934E793FAA3F31E4AB3FA83F340
:100608001A4492001160FFF7C1FE0646022393FACE
:10061800A3F293FAA3F293FAA3F2616A93FAA3F30B
:100628000122B3FA83F303F01F0302FA03F30B4228
:10063800B5D0FFF7ABFE801B0228E7D910E70C4CBA
:10064800E369D9005FBFE36943F08053E361E3697D
:100658005EBF03F080530193019B074B1A6854BF98
:1006680001260026D20509D5EB68012B17D129E010
:100678000010024020819010007000401A6842F477
:1006880080721A60FFF782FE0746804B1B68DB0505
:10069800EAD4FFF77BFEC01B6428F6D9E0E65BB915
:1006A800236A23F001032362236A23F004032362ED
:1006B800FFF76CFE07463FE0052B236A06D143F09F
:1006C80004032362236A43F0010305E023F00103D6
:1006D8002362236A23F004032362FFF757FE0746C9
:1006E800022393FAA3F293FAA3F2B2FA82F242F047
:1006F800400252099A4201D1216A02E093FAA3F218
:10070800616A93FAA3F30122B3FA83F303F01F0398
:1007180002FA03F30B4227D1FFF738FE41F2883380
:10072800C01B9842DCD99BE6FFF730FE41F28833C4
:10073800C01B98423FF694AE022393FAA3F293FAB1
:10074800A3F2B2FA82F242F0400252099A4211D15F
:10075800216A93FAA3F30122B3FA83F303F01F0388
:1007680002FA03F30B42DFD146B1E36923F0805369
:10077800E36103E093FAA3F2616AEAE7EA690AB976
:10078800002080E0424C636803F00C03082B3FF420
:100798002FAE022A4FF0807351D193FAA3F3B3FA24
:1007A80083F303F1845303F584139B0000221A603A
:1007B800FFF7ECFD06464FF0007393FAA3F23448B6
:1007C800226893FAA3F30121B3FA83F303F01F031A
:1007D80001FA03F3134205D0FFF7D8FD801B022866
:1007E800E9D93DE643682E6A6A6A23F474133243F2
:1007F800134343604FF0807393FAA3F3B3FA83F380
:1008080003F1845303F584139B001960FFF7BEFDC1
:1008180005464FF0007393FAA3F2216893FAA3F305
:100828000122B3FA83F303F01F0302FA03F30B4226
:10083800A6D1FFF7ABFD401B0228EAD910E693FAD0
:10084800A3F3B3FA83F303F1845303F584139B00F2
:1008580000221A60FFF79AFD05464FF0007393FADD
:10086800A3F2216893FAA3F30122B3FA83F303F006
:100878001F0302FA03F30B4282D0FFF787FD401BE8
:100888000228EAD9ECE503B0F0BD00BF00700040D3
:10089800001002402DE9F3470F68002337FA03F2EE
:1008A80000F0B480012505FA03FA1AEA070600F0F9
:1008B800AB804C6824F01008B8F1020F16D14FEA4B
:1008C800D30E00EB8E0E03F0070CDEF820204FEA63
:1008D8008C0C4FF00F0909FA0CF922EA09090A6988
:1008E80002FA0CF249EA0202CEF820204FEA430E3F
:1008F8000322D0F800C002FA0EF2D24302EA0C0931
:1009080004F0030C0CFA0EFC08F1FF3849EA0C0C51
:10091800B8F1010FC0F800C014D8D0F808C0CD68ED
:1009280002EA0C0805FA0EFC48EA0C0CC0F808C0EC
:10093800D0F804C0C4F300152CEA0A0C9D404CEA18
:1009480005054560C5682A408D6805FA0EF515430A
:10095800E200C56058D52F4A956945F001059561B3
:10096800926923F0030505F1804502F0010205F5BF
:100978008035019203F0030C019AAA684FEA8C0CA7
:100988004FF00F0E0EFA0CFEB0F1904F22EA0E0E49
:100998000DD0214A90420CD002F5806290420AD0D4
:1009A80002F5806290420CBF0322052204E0002277
:1009B80002E0012200E0022202FA0CF242EA0E02F0
:1009C800AA60164A156814F4803F6FEA060E0CBF39
:1009D8000EEA050535431560556814F4003F0CBF51
:1009E8000EEA050535435560956814F4801F0CBF61
:1009F8000EEA050535439560D568A40254BF0EEA92
:100A0800050446EA0504D460013347E702B0BDE8AF
:100A1800F08700BF001002400004004800040140B5
:100A28000AB181617047816270470000024A136809
:100A380043F480731360704700700040054A1368E0
:100A480043F002031360044A136943F0040313617B
:100A580030BF70470070004000ED00E0024A1368A4
:100A680023F010031360704700700040002103E07A
:100A78000B4B5B58435004310A480B4B42189A42BF
:100A8800F6D30A4A02E0002313600432084B9A4264
:100A9800F9D3AFF3008000F00FF8FFF768FCFEE72A
:100AA8002C0C000800000020280400202804002046
:100AB80048040020FEE7000070B50F4E0F4D761B6E
:100AC800B61018BF002405D0013455F8043B9847E8
:100AD800A642F9D10A4E0B4D761B00F08DF8B610E0
:100AE80018BF002406D0013455F8043B9847A642A5
:100AF800F9D170BD70BD00BF200C0008200C0008A3
:100B0800280C0008200C0008024B13B1024800F022
:100B180005B8704700000000310B000801460020AE
:100B28000246034600F016B838B5084B084DED1AD2
:100B3800AC1018BFED1805D0013C55F8043D984796
:100B4800002CF9D1BDE8384000F05CB8280C00084A
:100B58002C0C00082DE9F047254C2568D5F84841AC
:100B68000646884692469946CCB360681F2818DC2A
:100B7800431C7EB104EB80050121C5F888A0D4F898
:100B8800887101FA00F21743022EC4F88871C5F87B
:100B980008911ED00230636044F820800020BDE830
:100BA800F087144B03B34FF4C870AFF300800446CA
:100BB800D0B1D5F84831002780E88800C5F8484109
:100BC80038460123C4F88871C4F88C71002EE1D02E
:100BD800D0E7D4F88C110A43C4F88C21DAE705F57C
:100BE800A674C5F84841C0E74FF0FF30BDE8F0876C
:100BF8001C0C000800000000F8B500BFF8BC08BCD9
:100C08009E467047F8B500BFF8BC08BC9E467047C2
:080C1800430000000000002071
:080C2000110B0008AD010008F2
:040C28008901000836
:100C2C0000000000EC02002054030020BC03002054
:100C3C0000000000000000000000000000000000A8
:100C4C000000000000000000000000000000000098
:100C5C0000000000180C000800000000000000005C
:100C6C000000000000000000000000000000000078
:100C7C000000000000000000000000000000000068
:100C8C000000000000000000000000000000000058
:100C9C000000000000000000000000000000000048
:100CAC000000000000000000000000000000000038
:100CBC000000000000000000000000000000000028
:100CCC000000000000000000010000000000000017
:100CDC000E33CDAB34126DE6ECDE05000B000000DC
:100CEC0000000000000000000000000000000000F8
:100CFC0000000000000000000000000000000000E8
:100D0C0000000000000000000000000000000000D7
:100D1C0000000000000000000000000000000000C7
:0400000508000A7570
:00000001FF
