:020000040800F2
:1000000000300020190B0008610B0008610B00088C
:10001000610B0008610B0008610B00080000000084
:10002000000000000000000000000000610B00085C
:10003000610B000800000000610B0008610B000864
:1000400000000000000000000000000000000000B0
:1000500000000000000000000000000000000000A0
:100060000000000000000000000000000000000090
:100070000000000000000000000000000000000080
:100080000000000000000000000000000000000070
:100090000000000000000000000000000000000060
:1000A0000000000000000000000000000000000050
:1000B0000000000000000000000000000000000040
:1000C0000000000000000000000000000000000030
:1000D0000000000000000000000000000000000020
:1000E0000000000000000000000000000000000010
:1000F0000000000000000000000000000000000000
:1001000000000000000000000000000000000000EF
:1001100000000000000000000000000000000000DF
:1001200000000000000000000000000000000000CF
:1001300000000000000000000000000000000000BF
:1001400000000000000000000000000000000000AF
:10015000000000000000000000000000000000009F
:10016000000000000000000000000000000000008F
:10017000000000000000000000000000000000007F
:08018000000000000000000077
:1001880008B50548054B1B1A062B00D808BD044BBB
:10019800002BFBD09847F9E7280400202B04002007
:1001A8000000000008B50748074B1B1A9B1003EB1B
:1001B800D373591000D108BD044A002AFBD09047D8
:1001C800F9E700BF280400202804002000000000F0
:1001D80010B5064C237843B9FFF7D2FF044B13B18F
:1001E8000448AFF300800123237010BD28040020C9
:1001F80000000000C40C000808B5074B1BB10748F5
:100208000749AFF300800748036813B1064B03B1F1
:100218009847BDE80840C5E700000000C40C000886
:100228002C040020280400200000000082B00023D5
:10023800009301930193019B83420BD20023009307
:10024800009A054B9A4202D8009B0133F7E7019BBD
:100258000133EFE702B07047CF0101007FB50023FB
:10026800049305930493049BB3F5967F5DD23048BD
:100278001021012200F026FC002301930393019B27
:10028800092B10D800230293029A41F287339A422D
:1002980005D8039B01330393029B0133F3E7019BCA
:1002A80001330193EBE722481021002200F00AFCF9
:1002B800019B632B10D800230293029A41F28733E3
:1002C8009A4205D8039B01330393029B0133F3E75A
:1002D800019B01330193EBE7019B642B08D1029A40
:1002E80041F288339A4203D1039A124B9A4219D0A9
:1002F80000230593059B022B12D8082101220C48E4
:1003080000F0E0FB0520FFF791FF094808210022D3
:1003180000F0D8FB0520FFF789FF059B0133E8E7CC
:1003280000230493049B01339CE707B05DF804FBAA
:100338000004004820A1070007B51048302100221A
:1003480000F0C0FB00230193019B022B12D820214F
:1003580001220A4800F0B6FB0520FFF767FF0748AF
:100368002021002200F0AEFB0520FFF75FFF019B74
:100378000133E8E703B05DF804FB00BF0004004860
:1003880000B58BB002230093012200236846019335
:1003980004920893069300F051F80BB05DF804FB43
:1003A800074B07B5DA6942F08052DA61DB6903F07E
:1003B80080530193019B00F08BFB03B05DF804FBB5
:1003C800001002407FB50C4B0C485A6942F4802259
:1003D8005A615B6903F480230093009B38230193DF
:1003E800012302930023039301A90323049300F03C
:1003F8009FFA07B05DF804FB0010024000040048B3
:1004080008B500F07DFBBDE8084000F069BB08B501
:10041800FFF7B6FFFFF7C4FFFFF7D4FFFFF78CFF26
:10042800FFF71CFFFFF7ECFFFEE70000024B186820
:10043800421C1A60704700BF440400200368F7B5E7
:10044800DA07054603D42B689B077AD4F0E0B64C4C
:10045800636803F00C03042B07D0636803F00C03F4
:10046800082B19D16368DF0316D54FF4003393FACC
:10047800A3F34FF40032236892FAA2F2B2FA82F29E
:1004880002F01F02012101FA02F21A42DBD06B6866
:10049800002BD8D1012047E26B68B3F5803F07D025
:1004A80022684BB1B3F5A02F06D142F48022226016
:1004B800226842F4803205E022F480322260226809
:1004C80022F480222260E16AAA6821F00F010A431F
:1004D800E262DBB1FFF7AAFF06464FF4003393FA56
:1004E800A3F34FF40032236892FAA2F2B2FA82F22E
:1004F80002F01F02012101FA02F21A42A3D1FFF70A
:1005080095FF801B6428E8D903200DE2FFF78EFFD2
:1005180006464FF4003393FAA3F34FF400322368EE
:1005280092FAA2F2B2FA82F202F01F02012101FA53
:1005380002F21A4287D0FFF779FF801B6428E8D9B6
:10054800E2E7794C636813F00C0F07D0636803F097
:100558000C03082B16D16368DE0313D4022393FA25
:10056800A3F30222236892FAA2F2B2FA82F202F00C
:100578001F02012101FA02F21A4229D02B698B428B
:1005880088D125E02A6901237AB393FAA3F2B2FA53
:1005980082F202F1845202F5841292001360FFF78E
:1005A80045FF0646022393FAA3F30222236892FA30
:1005B800A2F2B2FA82F202F01F02012101FA02F25B
:1005C8001A4205D1FFF732FF801B0228EAD99BE7C0
:1005D8002268F82191FAA1F16B69B1FA81F18B4097
:1005E80022F0F8021343236022E093FAA3F3B3FA4C
:1005F80083F303F1845303F584139B001A60FFF718
:1006080015FF0646022393FAA3F30222236892FAFF
:10061800A2F2B2FA82F202F01F02012101FA02F2FA
:100628001A4205D0FFF702FF801B0228EAD96BE7C0
:100638002B681C0703D42B6858074CD4E9E0AA6937
:10064800394C01231AB393FAA3F1384AB1FA81F16C
:100658000A4492001360FFF7E9FE0646022393FA64
:10066800A3F293FAA3F293FAA3F2626A93FAA3F3BA
:10067800B3FA83F303F01F03012101FA03F31342D2
:10068800D9D1FFF7D3FE801B0228E7D93CE793FABC
:10069800A3F3B3FA83F1254B0B449B001A60FFF7D1
:1006A800C5FE0646022393FAA3F293FAA3F293FA3D
:1006B800A3F2626A93FAA3F3B3FA83F303F01F0376
:1006C800012101FA03F31342B5D0FFF7AFFE801BF7
:1006D8000228E7D918E7144CE369D9000AD4E3697A
:1006E80043F08053E361E36903F080530193019B76
:1006F800012600E000260E4B1A68D20503D5EB68E8
:10070800012B17D129E01A6842F480721A60FFF7AA
:100718008DFE0746064B1B68DB05F0D4FFF786FE07
:10072800C01B6428F6D9EFE6001002402081901023
:10073800007000405BB9236A23F001032362236A37
:1007480023F004032362FFF771FE07463FE0052B01
:10075800236A06D143F004032362236A43F00103AA
:1007680005E023F001032362236A23F004032362D4
:10077800FFF75CFE0746022393FAA3F293FAA3F26B
:10078800B2FA82F242F0400252099A4201D1226A38
:1007980002E093FAA3F2626A93FAA3F3B3FA83F33B
:1007A80003F01F03012101FA03F3134227D1FFF7D6
:1007B8003DFE41F28833C01B9842DCD9A4E6FFF71E
:1007C80035FE41F28833C01B98423FF69DAE0223A6
:1007D80093FAA3F293FAA3F2B2FA82F242F0400239
:1007E80052099A4211D1226A93FAA3F3B3FA83F316
:1007F80003F01F03012101FA03F31342DFD146B1CD
:10080800E36923F08053E36103E093FAA3F2626A99
:10081800EAE7EB690BB9002086E0444C626802F015
:100828000C02082A3FF436AE022B4FF0807354D1E5
:1008380093FAA3F3B3FA83F303F1845303F5841310
:100848009B0000221A60FFF7F1FD06464FF0007387
:1008580093FAA3F34FF00071236891FAA1F1B1FA6A
:1008680081F101F01F01012202FA01F1194205D0BC
:10087800FFF7DCFD801B0228E8D945E66168286A95
:100888006B6A21F4741103430B4363604FF0807368
:1008980093FAA3F3B3FA83F303F1845303F58413B0
:1008A8009B001A60FFF7C2FD05464FF0007393FAEC
:1008B800A3F34FF00072236892FAA2F2B2FA82F21E
:1008C80002F01F02012101FA02F21A42A3D1FFF736
:1008D800ADFD401B0228E8D916E693FAA3F3B3FA54
:1008E80083F303F1845303F584139B0000221A60F9
:1008F800FFF79CFD05464FF0007393FAA3F34FF002
:100908000072236892FAA2F2B2FA82F202F01F028F
:10091800012101FA02F21A423FF47DAFFFF786FD8A
:10092800401B0228E7D9EFE503B0F0BD00100240F4
:100938002DE9F3470F68002337FA03F200F0B98076
:100948004FF0010808FA03F818EA070500F0AF802D
:100958004C6824F01006022E16D14FEAD30C00EB97
:100968008C0C03F00709DCF820204FEA89094FF0C6
:100978000F0A0AFA09FA22EA0A0A0A6902FA09F9BE
:100988004AEA0902CCF820205A004FF0030CD0F8AC
:1009980000A00CFA02FC6FEA0C0C04F003090CEA44
:1009A8000A0A09FA02F9013E4AEA0909012EC0F8C1
:1009B800009010D886680CEA0609CE68964049EA85
:1009C80006068660466826EA0808C4F300169E40B4
:1009D80048EA06064660C6680CEA060C8E68964029
:1009E8004CEA0602C260E20061D5334A966946F0D5
:1009F80001069661926902F001020192019A23F0C0
:100A0800030202F1804202F5803203F0030C96687B
:100A18004FEA8C0C4FF00F0808FA0CF8B0F1904F21
:100A280026EA08080DD0254EB0420CD006F580669F
:100A3800B0420AD006F58066B04214BF05260326E8
:100A480004E0002602E0012600E0022606FA0CF681
:100A580046EA080696601A4AD2F800C0EE4314F433
:100A6800803F14BF45EA0C0C06EA0C0CC2F800C023
:100A7800D2F804C014F4003F14BF45EA0C0C06EA8F
:100A88000C0CC2F804C0D2F808C014F4801F14BFBC
:100A980045EA0C0C06EA0C0CC2F808C0D2F80CC0E7
:100AA800A40254BF06EA0C0545EA0C05D5600133DB
:100AB80042E702B0BDE8F087001002400004004899
:100AC800000401400AB181617047816270470000EB
:100AD800024B1A6842F480721A6070470070004036
:100AE800054B1A6842F002021A60044B1A6942F078
:100AF80004021A6130BF70470070004000ED00E04A
:100B0800024B1A6822F010021A6070470070004009
:100B1800002103E00B4B5B58435004310A480B4B50
:100B280042189A42F6D30A4A02E0002313600432BC
:100B3800084B9A42F9D3AFF3008000F02FF8FFF783
:100B480066FCFEE7F00C00080000002028040020E6
:100B58002804002048040020FEE700000146002089
:100B68000246034600F048B838B540F6F04440F66F
:100B7800EC45C0F60005C0F60004641BA41018BFBD
:100B880005EB840505D0013C55F8043D9847002C39
:100B9800F9D1BDE8384000F097B800BF70B540F60D
:100BA800E44640F6E445C0F60005C0F60006761BAC
:100BB800B6101CBF043D002405D0013455F8043F8D
:100BC8009847A642F9D140F6EC4640F6E445C0F60F
:100BD8000005C0F60006761B00F070F8B6101CBFC2
:100BE800043D002406D0013455F8043F9847A64236
:100BF800F9D170BD70BD00BFF0B540F6E044C0F655
:100C0800000485B02668D6F848410746002C44D031
:100C180065681F2D21DD40F20004C0F200041CB9F4
:100C28004FF0FF3005B0F0BD4FF4C8700391029249
:100C38000193AFF300800399029A019B04460028B0
:100C4800EED0D6F848510020256060600546C6F809
:100C58004841C4F88801C4F88C013FB9AB1C002096
:100C68000135656044F8231005B0F0BD04EB85003C
:100C78004FF0010CC0F88820D4F888610CFA05F20E
:100C88001643022FC4F88861C0F8083102BFD4F8AF
:100C98008C311A43C4F88C21E0E706F5A674C6F82F
:100CA8004841B5E740F20003C0F200032BB140F61B
:100CB8007130C0F60000FFF751BF7047F8B500BFAC
:100CC800F8BC08BC9E467047F8B500BFF8BC08BC25
:040CD8009E4670477D
:080CDC004300000000000020AD
:080CE400AD0C0008010200083C
:040CEC00D901000822
:100CF00000000000EC02002054030020BC03002090
:100D000000000000000000000000000000000000E3
:100D100000000000000000000000000000000000D3
:100D200000000000DC0C00080000000000000000D3
:100D300000000000000000000000000000000000B3
:100D400000000000000000000000000000000000A3
:100D50000000000000000000000000000000000093
:100D60000000000000000000000000000000000083
:100D70000000000000000000000000000000000073
:100D80000000000000000000000000000000000063
:100D90000000000000000000010000000000000052
:100DA0000E33CDAB34126DE6ECDE05000B00000017
:100DB0000000000000000000000000000000000033
:100DC0000000000000000000000000000000000023
:100DD0000000000000000000000000000000000013
:100DE0000000000000000000000000000000000003
:0400000508000B19CB
:00000001FF
